{
  "contractName": "AggregatorProxy",
  "abi": [
    {
      "constant": true,
      "inputs": [],
      "name": "aggregator",
      "outputs": [
        {
          "name": "",
          "type": "address"
        }
      ],
      "payable": false,
      "stateMutability": "view",
      "type": "function"
    },
    {
      "constant": false,
      "inputs": [],
      "name": "renounceOwnership",
      "outputs": [],
      "payable": false,
      "stateMutability": "nonpayable",
      "type": "function"
    },
    {
      "constant": true,
      "inputs": [],
      "name": "owner",
      "outputs": [
        {
          "name": "",
          "type": "address"
        }
      ],
      "payable": false,
      "stateMutability": "view",
      "type": "function"
    },
    {
      "constant": false,
      "inputs": [
        {
          "name": "_newOwner",
          "type": "address"
        }
      ],
      "name": "transferOwnership",
      "outputs": [],
      "payable": false,
      "stateMutability": "nonpayable",
      "type": "function"
    },
    {
      "inputs": [
        {
          "name": "_aggregator",
          "type": "address"
        }
      ],
      "payable": false,
      "stateMutability": "nonpayable",
      "type": "constructor"
    },
    {
      "anonymous": false,
      "inputs": [
        {
          "indexed": true,
          "name": "previousOwner",
          "type": "address"
        }
      ],
      "name": "OwnershipRenounced",
      "type": "event"
    },
    {
      "anonymous": false,
      "inputs": [
        {
          "indexed": true,
          "name": "previousOwner",
          "type": "address"
        },
        {
          "indexed": true,
          "name": "newOwner",
          "type": "address"
        }
      ],
      "name": "OwnershipTransferred",
      "type": "event"
    },
    {
      "anonymous": false,
      "inputs": [
        {
          "indexed": true,
          "name": "current",
          "type": "int256"
        },
        {
          "indexed": true,
          "name": "roundId",
          "type": "uint256"
        },
        {
          "indexed": false,
          "name": "timestamp",
          "type": "uint256"
        }
      ],
      "name": "AnswerUpdated",
      "type": "event"
    },
    {
      "anonymous": false,
      "inputs": [
        {
          "indexed": true,
          "name": "roundId",
          "type": "uint256"
        },
        {
          "indexed": true,
          "name": "startedBy",
          "type": "address"
        }
      ],
      "name": "NewRound",
      "type": "event"
    },
    {
      "constant": true,
      "inputs": [],
      "name": "latestAnswer",
      "outputs": [
        {
          "name": "",
          "type": "int256"
        }
      ],
      "payable": false,
      "stateMutability": "view",
      "type": "function"
    },
    {
      "constant": true,
      "inputs": [],
      "name": "latestTimestamp",
      "outputs": [
        {
          "name": "",
          "type": "uint256"
        }
      ],
      "payable": false,
      "stateMutability": "view",
      "type": "function"
    },
    {
      "constant": true,
      "inputs": [
        {
          "name": "_roundId",
          "type": "uint256"
        }
      ],
      "name": "getAnswer",
      "outputs": [
        {
          "name": "",
          "type": "int256"
        }
      ],
      "payable": false,
      "stateMutability": "view",
      "type": "function"
    },
    {
      "constant": true,
      "inputs": [
        {
          "name": "_roundId",
          "type": "uint256"
        }
      ],
      "name": "getTimestamp",
      "outputs": [
        {
          "name": "",
          "type": "uint256"
        }
      ],
      "payable": false,
      "stateMutability": "view",
      "type": "function"
    },
    {
      "constant": true,
      "inputs": [],
      "name": "latestRound",
      "outputs": [
        {
          "name": "",
          "type": "uint256"
        }
      ],
      "payable": false,
      "stateMutability": "view",
      "type": "function"
    },
    {
      "constant": false,
      "inputs": [
        {
          "name": "_aggregator",
          "type": "address"
        }
      ],
      "name": "setAggregator",
      "outputs": [],
      "payable": false,
      "stateMutability": "nonpayable",
      "type": "function"
    },
    {
      "constant": false,
      "inputs": [],
      "name": "destroy",
      "outputs": [],
      "payable": false,
      "stateMutability": "nonpayable",
      "type": "function"
    }
  ],
  "bytecode": "0x608060405234801561001057600080fd5b50604051602080610c6883398101806040528101908080519060200190929190505050336000806101000a81548173ffffffffffffffffffffffffffffffffffffffff021916908373ffffffffffffffffffffffffffffffffffffffff16021790555061008b81610091640100000000026401000000009004565b50610130565b6000809054906101000a900473ffffffffffffffffffffffffffffffffffffffff1673ffffffffffffffffffffffffffffffffffffffff163373ffffffffffffffffffffffffffffffffffffffff161415156100ec57600080fd5b80600160006101000a81548173ffffffffffffffffffffffffffffffffffffffff021916908373ffffffffffffffffffffffffffffffffffffffff16021790555050565b610b298061013f6000396000f3006080604052600436106100af576000357c0100000000000000000000000000000000000000000000000000000000900463ffffffff168063245a7bfc146100b457806350d25bcd1461010b578063668a0f0214610136578063715018a6146101615780638205bf6a1461017857806383197ef0146101a35780638da5cb5b146101ba578063b5ab58dc14610211578063b633620c14610252578063f2fde38b14610293578063f9120af6146102d6575b600080fd5b3480156100c057600080fd5b506100c9610319565b604051808273ffffffffffffffffffffffffffffffffffffffff1673ffffffffffffffffffffffffffffffffffffffff16815260200191505060405180910390f35b34801561011757600080fd5b5061012061033f565b6040518082815260200191505060405180910390f35b34801561014257600080fd5b5061014b610407565b6040518082815260200191505060405180910390f35b34801561016d57600080fd5b506101766104cf565b005b34801561018457600080fd5b5061018d6105d1565b6040518082815260200191505060405180910390f35b3480156101af57600080fd5b506101b8610699565b005b3480156101c657600080fd5b506101cf61072e565b604051808273ffffffffffffffffffffffffffffffffffffffff1673ffffffffffffffffffffffffffffffffffffffff16815260200191505060405180910390f35b34801561021d57600080fd5b5061023c60048036038101908080359060200190929190505050610753565b6040518082815260200191505060405180910390f35b34801561025e57600080fd5b5061027d60048036038101908080359060200190929190505050610828565b6040518082815260200191505060405180910390f35b34801561029f57600080fd5b506102d4600480360381019080803573ffffffffffffffffffffffffffffffffffffffff1690602001909291905050506108fd565b005b3480156102e257600080fd5b50610317600480360381019080803573ffffffffffffffffffffffffffffffffffffffff169060200190929190505050610964565b005b600160009054906101000a900473ffffffffffffffffffffffffffffffffffffffff1681565b6000600160009054906101000a900473ffffffffffffffffffffffffffffffffffffffff1673ffffffffffffffffffffffffffffffffffffffff166350d25bcd6040518163ffffffff167c0100000000000000000000000000000000000000000000000000000000028152600401602060405180830381600087803b1580156103c757600080fd5b505af11580156103db573d6000803e3d6000fd5b505050506040513d60208110156103f157600080fd5b8101908080519060200190929190505050905090565b6000600160009054906101000a900473ffffffffffffffffffffffffffffffffffffffff1673ffffffffffffffffffffffffffffffffffffffff1663668a0f026040518163ffffffff167c0100000000000000000000000000000000000000000000000000000000028152600401602060405180830381600087803b15801561048f57600080fd5b505af11580156104a3573d6000803e3d6000fd5b505050506040513d60208110156104b957600080fd5b8101908080519060200190929190505050905090565b6000809054906101000a900473ffffffffffffffffffffffffffffffffffffffff1673ffffffffffffffffffffffffffffffffffffffff163373ffffffffffffffffffffffffffffffffffffffff1614151561052a57600080fd5b6000809054906101000a900473ffffffffffffffffffffffffffffffffffffffff1673ffffffffffffffffffffffffffffffffffffffff167ff8df31144d9c2f0f6b59d69b8b98abd5459d07f2742c4df920b25aae33c6482060405160405180910390a260008060006101000a81548173ffffffffffffffffffffffffffffffffffffffff021916908373ffffffffffffffffffffffffffffffffffffffff160217905550565b6000600160009054906101000a900473ffffffffffffffffffffffffffffffffffffffff1673ffffffffffffffffffffffffffffffffffffffff16638205bf6a6040518163ffffffff167c0100000000000000000000000000000000000000000000000000000000028152600401602060405180830381600087803b15801561065957600080fd5b505af115801561066d573d6000803e3d6000fd5b505050506040513d602081101561068357600080fd5b8101908080519060200190929190505050905090565b6000809054906101000a900473ffffffffffffffffffffffffffffffffffffffff1673ffffffffffffffffffffffffffffffffffffffff163373ffffffffffffffffffffffffffffffffffffffff161415156106f457600080fd5b6000809054906101000a900473ffffffffffffffffffffffffffffffffffffffff1673ffffffffffffffffffffffffffffffffffffffff16ff5b6000809054906101000a900473ffffffffffffffffffffffffffffffffffffffff1681565b6000600160009054906101000a900473ffffffffffffffffffffffffffffffffffffffff1673ffffffffffffffffffffffffffffffffffffffff1663b5ab58dc836040518263ffffffff167c010000000000000000000000000000000000000000000000000000000002815260040180828152602001915050602060405180830381600087803b1580156107e657600080fd5b505af11580156107fa573d6000803e3d6000fd5b505050506040513d602081101561081057600080fd5b81019080805190602001909291905050509050919050565b6000600160009054906101000a900473ffffffffffffffffffffffffffffffffffffffff1673ffffffffffffffffffffffffffffffffffffffff1663b633620c836040518263ffffffff167c010000000000000000000000000000000000000000000000000000000002815260040180828152602001915050602060405180830381600087803b1580156108bb57600080fd5b505af11580156108cf573d6000803e3d6000fd5b505050506040513d60208110156108e557600080fd5b81019080805190602001909291905050509050919050565b6000809054906101000a900473ffffffffffffffffffffffffffffffffffffffff1673ffffffffffffffffffffffffffffffffffffffff163373ffffffffffffffffffffffffffffffffffffffff1614151561095857600080fd5b61096181610a03565b50565b6000809054906101000a900473ffffffffffffffffffffffffffffffffffffffff1673ffffffffffffffffffffffffffffffffffffffff163373ffffffffffffffffffffffffffffffffffffffff161415156109bf57600080fd5b80600160006101000a81548173ffffffffffffffffffffffffffffffffffffffff021916908373ffffffffffffffffffffffffffffffffffffffff16021790555050565b600073ffffffffffffffffffffffffffffffffffffffff168173ffffffffffffffffffffffffffffffffffffffff1614151515610a3f57600080fd5b8073ffffffffffffffffffffffffffffffffffffffff166000809054906101000a900473ffffffffffffffffffffffffffffffffffffffff1673ffffffffffffffffffffffffffffffffffffffff167f8be0079c531659141344cd1fd0a4f28419497f9722a3daafe3b4186f6b6457e060405160405180910390a3806000806101000a81548173ffffffffffffffffffffffffffffffffffffffff021916908373ffffffffffffffffffffffffffffffffffffffff160217905550505600a165627a7a723058203fabe768391688cf96972cd891eb98a646481e91badc2c8da1c56823e1172c520029",
  "source": "pragma solidity 0.4.24;\n\nimport \"./interfaces/AggregatorInterface.sol\";\nimport \"./vendor/Ownable.sol\";\n\n/**\n * @title A trusted proxy for updating where current answers are read from\n * @notice This contract provides a consistent address for the\n * CurrentAnwerInterface but delegates where it reads from to the owner, who is\n * trusted to update it.\n */\ncontract AggregatorProxy is AggregatorInterface, Ownable {\n\n  AggregatorInterface public aggregator;\n\n  constructor(address _aggregator) public Ownable() {\n    setAggregator(_aggregator);\n  }\n\n  /**\n   * @notice Reads the current answer from aggregator delegated to.\n   */\n  function latestAnswer()\n    external\n    view\n    returns (int256)\n  {\n    return aggregator.latestAnswer();\n  }\n\n  /**\n   * @notice Reads the last updated height from aggregator delegated to.\n   */\n  function latestTimestamp()\n    external\n    view\n    returns (uint256)\n  {\n    return aggregator.latestTimestamp();\n  }\n\n  /**\n   * @notice get past rounds answers\n   * @param _roundId the answer number to retrieve the answer for\n   */\n  function getAnswer(uint256 _roundId)\n    external\n    view\n    returns (int256)\n  {\n    return aggregator.getAnswer(_roundId);\n  }\n\n  /**\n   * @notice get block timestamp when an answer was last updated\n   * @param _roundId the answer number to retrieve the updated timestamp for\n   */\n  function getTimestamp(uint256 _roundId)\n    external\n    view\n    returns (uint256)\n  {\n    return aggregator.getTimestamp(_roundId);\n  }\n\n  /**\n   * @notice get the latest completed round where the answer was updated\n   */\n  function latestRound()\n    external\n    view\n    returns (uint256)\n  {\n    return aggregator.latestRound();\n  }\n\n  /**\n   * @notice Allows the owner to update the aggregator address.\n   * @param _aggregator The new address for the aggregator contract\n   */\n  function setAggregator(address _aggregator)\n    public\n    onlyOwner()\n  {\n    aggregator = AggregatorInterface(_aggregator);\n  }\n\n  /**\n   * @notice Allows the owner to destroy the contract if it is not intended to\n   * be used any longer.\n   */\n  function destroy()\n    external\n    onlyOwner()\n  {\n    selfdestruct(owner);\n  }\n\n}\n",
  "sourcePath": "/Users/ejwessel/Dev/ChainlinkOracle/contracts/AggregatorProxy.sol",
  "compiler": {
    "name": "solc",
    "version": "0.4.24+commit.e67f0147.Emscripten.clang"
  },
  "schemaVersion": "3.1.0",
  "updatedAt": "2020-04-18T23:44:48.442Z",
  "devdoc": {
    "methods": {
      "getAnswer(uint256)": {
        "params": {
          "_roundId": "the answer number to retrieve the answer for"
        }
      },
      "getTimestamp(uint256)": {
        "params": {
          "_roundId": "the answer number to retrieve the updated timestamp for"
        }
      },
      "renounceOwnership()": {
        "details": "Allows the current owner to relinquish control of the contract."
      },
      "setAggregator(address)": {
        "params": {
          "_aggregator": "The new address for the aggregator contract"
        }
      },
      "transferOwnership(address)": {
        "details": "Allows the current owner to transfer control of the contract to a newOwner.",
        "params": {
          "_newOwner": "The address to transfer ownership to."
        }
      }
    },
    "title": "A trusted proxy for updating where current answers are read from"
  },
  "userdoc": {
    "methods": {
      "destroy()": {
        "notice": "Allows the owner to destroy the contract if it is not intended to be used any longer."
      },
      "getAnswer(uint256)": {
        "notice": "get past rounds answers"
      },
      "getTimestamp(uint256)": {
        "notice": "get block timestamp when an answer was last updated"
      },
      "latestAnswer()": {
        "notice": "Reads the current answer from aggregator delegated to."
      },
      "latestRound()": {
        "notice": "get the latest completed round where the answer was updated"
      },
      "latestTimestamp()": {
        "notice": "Reads the last updated height from aggregator delegated to."
      },
      "renounceOwnership()": {
        "notice": "Renouncing to ownership will leave the contract without an owner. It will not be possible to call the functions with the `onlyOwner` modifier anymore."
      },
      "setAggregator(address)": {
        "notice": "Allows the owner to update the aggregator address."
      }
    }
  }
}